{
  "address": "0x5FC8d32690cc91D4c39d9d3abcBD16989F875707",
  "abi": [
    {
      "inputs": [],
      "name": "getNumb",
      "outputs": [
        {
          "internalType": "uint256",
          "name": "",
          "type": "uint256"
        }
      ],
      "stateMutability": "view",
      "type": "function"
    },
    {
      "inputs": [
        {
          "internalType": "uint256",
          "name": "_numb",
          "type": "uint256"
        }
      ],
      "name": "setNumb",
      "outputs": [],
      "stateMutability": "nonpayable",
      "type": "function"
    }
  ],
  "transactionHash": "0xa993f904d041d94ef97f650f3f98fe5446bc8b95bb83fea9cd44332721de8741",
  "args": [],
  "numDeployments": 4,
  "solcInputHash": "f54ce6c0e3ed09c5f4036277b8c0e496",
  "bytecode": "0x6080604052348015600f57600080fd5b506101508061001f6000396000f3fe608060405234801561001057600080fd5b50600436106100365760003560e01c806318892ad91461003b578063fc7a8d8c14610059575b600080fd5b610043610075565b60405161005091906100a1565b60405180910390f35b610073600480360381019061006e91906100ed565b61007e565b005b60008054905090565b8060008190555050565b6000819050919050565b61009b81610088565b82525050565b60006020820190506100b66000830184610092565b92915050565b600080fd5b6100ca81610088565b81146100d557600080fd5b50565b6000813590506100e7816100c1565b92915050565b600060208284031215610103576101026100bc565b5b6000610111848285016100d8565b9150509291505056fea26469706673582212206937f3a87265b778a86f66a5769f6aeaeec84d4d3be1c36ab842c6e3cf77510c64736f6c634300081b0033",
  "devdoc": {
    "kind": "dev",
    "methods": {},
    "version": 1
  },
  "userdoc": {
    "kind": "user",
    "methods": {},
    "version": 1
  },
  "storageLayout": {
    "storage": [
      {
        "astId": 3,
        "contract": "contracts/MarketPlace.sol:MarketPlace",
        "label": "numb",
        "offset": 0,
        "slot": "0",
        "type": "t_uint256"
      }
    ],
    "types": {
      "t_uint256": {
        "encoding": "inplace",
        "label": "uint256",
        "numberOfBytes": "32"
      }
    }
  }
}