{
  "address": "0x2279B7A0a67DB372996a5FaB50D91eAA73d2eBe6",
  "abi": [
    {
      "inputs": [
        {
          "internalType": "uint256",
          "name": "_maxSupply",
          "type": "uint256"
        },
        {
          "internalType": "string",
          "name": "_name",
          "type": "string"
        },
        {
          "internalType": "string",
          "name": "_symbol",
          "type": "string"
        }
      ],
      "stateMutability": "nonpayable",
      "type": "constructor"
    },
    {
      "inputs": [],
      "name": "AccessControlBadConfirmation",
      "type": "error"
    },
    {
      "inputs": [
        {
          "internalType": "address",
          "name": "account",
          "type": "address"
        },
        {
          "internalType": "bytes32",
          "name": "neededRole",
          "type": "bytes32"
        }
      ],
      "name": "AccessControlUnauthorizedAccount",
      "type": "error"
    },
    {
      "inputs": [
        {
          "internalType": "address",
          "name": "spender",
          "type": "address"
        },
        {
          "internalType": "uint256",
          "name": "allowance",
          "type": "uint256"
        },
        {
          "internalType": "uint256",
          "name": "needed",
          "type": "uint256"
        }
      ],
      "name": "ERC20InsufficientAllowance",
      "type": "error"
    },
    {
      "inputs": [
        {
          "internalType": "address",
          "name": "sender",
          "type": "address"
        },
        {
          "internalType": "uint256",
          "name": "balance",
          "type": "uint256"
        },
        {
          "internalType": "uint256",
          "name": "needed",
          "type": "uint256"
        }
      ],
      "name": "ERC20InsufficientBalance",
      "type": "error"
    },
    {
      "inputs": [
        {
          "internalType": "address",
          "name": "approver",
          "type": "address"
        }
      ],
      "name": "ERC20InvalidApprover",
      "type": "error"
    },
    {
      "inputs": [
        {
          "internalType": "address",
          "name": "receiver",
          "type": "address"
        }
      ],
      "name": "ERC20InvalidReceiver",
      "type": "error"
    },
    {
      "inputs": [
        {
          "internalType": "address",
          "name": "sender",
          "type": "address"
        }
      ],
      "name": "ERC20InvalidSender",
      "type": "error"
    },
    {
      "inputs": [
        {
          "internalType": "address",
          "name": "spender",
          "type": "address"
        }
      ],
      "name": "ERC20InvalidSpender",
      "type": "error"
    },
    {
      "anonymous": false,
      "inputs": [
        {
          "indexed": true,
          "internalType": "address",
          "name": "owner",
          "type": "address"
        },
        {
          "indexed": true,
          "internalType": "address",
          "name": "spender",
          "type": "address"
        },
        {
          "indexed": false,
          "internalType": "uint256",
          "name": "value",
          "type": "uint256"
        }
      ],
      "name": "Approval",
      "type": "event"
    },
    {
      "anonymous": false,
      "inputs": [
        {
          "indexed": true,
          "internalType": "bytes32",
          "name": "role",
          "type": "bytes32"
        },
        {
          "indexed": true,
          "internalType": "bytes32",
          "name": "previousAdminRole",
          "type": "bytes32"
        },
        {
          "indexed": true,
          "internalType": "bytes32",
          "name": "newAdminRole",
          "type": "bytes32"
        }
      ],
      "name": "RoleAdminChanged",
      "type": "event"
    },
    {
      "anonymous": false,
      "inputs": [
        {
          "indexed": true,
          "internalType": "bytes32",
          "name": "role",
          "type": "bytes32"
        },
        {
          "indexed": true,
          "internalType": "address",
          "name": "account",
          "type": "address"
        },
        {
          "indexed": true,
          "internalType": "address",
          "name": "sender",
          "type": "address"
        }
      ],
      "name": "RoleGranted",
      "type": "event"
    },
    {
      "anonymous": false,
      "inputs": [
        {
          "indexed": true,
          "internalType": "bytes32",
          "name": "role",
          "type": "bytes32"
        },
        {
          "indexed": true,
          "internalType": "address",
          "name": "account",
          "type": "address"
        },
        {
          "indexed": true,
          "internalType": "address",
          "name": "sender",
          "type": "address"
        }
      ],
      "name": "RoleRevoked",
      "type": "event"
    },
    {
      "anonymous": false,
      "inputs": [
        {
          "indexed": true,
          "internalType": "address",
          "name": "from",
          "type": "address"
        },
        {
          "indexed": true,
          "internalType": "address",
          "name": "to",
          "type": "address"
        },
        {
          "indexed": false,
          "internalType": "uint256",
          "name": "value",
          "type": "uint256"
        }
      ],
      "name": "Transfer",
      "type": "event"
    },
    {
      "inputs": [],
      "name": "DEFAULT_ADMIN_ROLE",
      "outputs": [
        {
          "internalType": "bytes32",
          "name": "",
          "type": "bytes32"
        }
      ],
      "stateMutability": "view",
      "type": "function"
    },
    {
      "inputs": [],
      "name": "MINTER_ROLE",
      "outputs": [
        {
          "internalType": "bytes32",
          "name": "",
          "type": "bytes32"
        }
      ],
      "stateMutability": "view",
      "type": "function"
    },
    {
      "inputs": [
        {
          "internalType": "address",
          "name": "owner",
          "type": "address"
        },
        {
          "internalType": "address",
          "name": "spender",
          "type": "address"
        }
      ],
      "name": "allowance",
      "outputs": [
        {
          "internalType": "uint256",
          "name": "",
          "type": "uint256"
        }
      ],
      "stateMutability": "view",
      "type": "function"
    },
    {
      "inputs": [
        {
          "internalType": "address",
          "name": "spender",
          "type": "address"
        },
        {
          "internalType": "uint256",
          "name": "value",
          "type": "uint256"
        }
      ],
      "name": "approve",
      "outputs": [
        {
          "internalType": "bool",
          "name": "",
          "type": "bool"
        }
      ],
      "stateMutability": "nonpayable",
      "type": "function"
    },
    {
      "inputs": [
        {
          "internalType": "address",
          "name": "account",
          "type": "address"
        }
      ],
      "name": "balanceOf",
      "outputs": [
        {
          "internalType": "uint256",
          "name": "",
          "type": "uint256"
        }
      ],
      "stateMutability": "view",
      "type": "function"
    },
    {
      "inputs": [
        {
          "internalType": "address",
          "name": "account",
          "type": "address"
        },
        {
          "internalType": "uint256",
          "name": "amount",
          "type": "uint256"
        }
      ],
      "name": "burnFromMinter",
      "outputs": [],
      "stateMutability": "nonpayable",
      "type": "function"
    },
    {
      "inputs": [],
      "name": "decimals",
      "outputs": [
        {
          "internalType": "uint8",
          "name": "",
          "type": "uint8"
        }
      ],
      "stateMutability": "view",
      "type": "function"
    },
    {
      "inputs": [
        {
          "internalType": "bytes32",
          "name": "role",
          "type": "bytes32"
        }
      ],
      "name": "getRoleAdmin",
      "outputs": [
        {
          "internalType": "bytes32",
          "name": "",
          "type": "bytes32"
        }
      ],
      "stateMutability": "view",
      "type": "function"
    },
    {
      "inputs": [
        {
          "internalType": "address",
          "name": "minter",
          "type": "address"
        }
      ],
      "name": "grantMinterRole",
      "outputs": [],
      "stateMutability": "nonpayable",
      "type": "function"
    },
    {
      "inputs": [
        {
          "internalType": "bytes32",
          "name": "role",
          "type": "bytes32"
        },
        {
          "internalType": "address",
          "name": "account",
          "type": "address"
        }
      ],
      "name": "grantRole",
      "outputs": [],
      "stateMutability": "nonpayable",
      "type": "function"
    },
    {
      "inputs": [
        {
          "internalType": "bytes32",
          "name": "role",
          "type": "bytes32"
        },
        {
          "internalType": "address",
          "name": "account",
          "type": "address"
        }
      ],
      "name": "hasRole",
      "outputs": [
        {
          "internalType": "bool",
          "name": "",
          "type": "bool"
        }
      ],
      "stateMutability": "view",
      "type": "function"
    },
    {
      "inputs": [],
      "name": "maxSupply",
      "outputs": [
        {
          "internalType": "uint256",
          "name": "",
          "type": "uint256"
        }
      ],
      "stateMutability": "view",
      "type": "function"
    },
    {
      "inputs": [
        {
          "internalType": "uint256",
          "name": "amount",
          "type": "uint256"
        }
      ],
      "name": "mint",
      "outputs": [],
      "stateMutability": "nonpayable",
      "type": "function"
    },
    {
      "inputs": [],
      "name": "name",
      "outputs": [
        {
          "internalType": "string",
          "name": "",
          "type": "string"
        }
      ],
      "stateMutability": "view",
      "type": "function"
    },
    {
      "inputs": [
        {
          "internalType": "bytes32",
          "name": "role",
          "type": "bytes32"
        },
        {
          "internalType": "address",
          "name": "callerConfirmation",
          "type": "address"
        }
      ],
      "name": "renounceRole",
      "outputs": [],
      "stateMutability": "nonpayable",
      "type": "function"
    },
    {
      "inputs": [
        {
          "internalType": "address",
          "name": "minter",
          "type": "address"
        }
      ],
      "name": "revokeMinterRole",
      "outputs": [],
      "stateMutability": "nonpayable",
      "type": "function"
    },
    {
      "inputs": [
        {
          "internalType": "bytes32",
          "name": "role",
          "type": "bytes32"
        },
        {
          "internalType": "address",
          "name": "account",
          "type": "address"
        }
      ],
      "name": "revokeRole",
      "outputs": [],
      "stateMutability": "nonpayable",
      "type": "function"
    },
    {
      "inputs": [
        {
          "internalType": "bytes4",
          "name": "interfaceId",
          "type": "bytes4"
        }
      ],
      "name": "supportsInterface",
      "outputs": [
        {
          "internalType": "bool",
          "name": "",
          "type": "bool"
        }
      ],
      "stateMutability": "view",
      "type": "function"
    },
    {
      "inputs": [],
      "name": "symbol",
      "outputs": [
        {
          "internalType": "string",
          "name": "",
          "type": "string"
        }
      ],
      "stateMutability": "view",
      "type": "function"
    },
    {
      "inputs": [],
      "name": "totalSupply",
      "outputs": [
        {
          "internalType": "uint256",
          "name": "",
          "type": "uint256"
        }
      ],
      "stateMutability": "view",
      "type": "function"
    },
    {
      "inputs": [
        {
          "internalType": "address",
          "name": "to",
          "type": "address"
        },
        {
          "internalType": "uint256",
          "name": "value",
          "type": "uint256"
        }
      ],
      "name": "transfer",
      "outputs": [
        {
          "internalType": "bool",
          "name": "",
          "type": "bool"
        }
      ],
      "stateMutability": "nonpayable",
      "type": "function"
    },
    {
      "inputs": [
        {
          "internalType": "address",
          "name": "from",
          "type": "address"
        },
        {
          "internalType": "address",
          "name": "to",
          "type": "address"
        },
        {
          "internalType": "uint256",
          "name": "value",
          "type": "uint256"
        }
      ],
      "name": "transferFrom",
      "outputs": [
        {
          "internalType": "bool",
          "name": "",
          "type": "bool"
        }
      ],
      "stateMutability": "nonpayable",
      "type": "function"
    }
  ],
  "transactionHash": "0x97a71652eeedf082423b7fea3303664f231d9a8cf3c4c0e7a4b7218d328390fb",
  "args": [
    "10000000000000000000",
    "SPRINT",
    "SPT"
  ],
  "numDeployments": 8,
  "solcInputHash": "3e420cb0bfd32382b1a636c7c41116aa",
  "bytecode": "0x608060405234801561001057600080fd5b50604051612ab8380380612ab8833981810160405281019061003291906106b6565b818181600390816100439190610958565b5080600490816100539190610958565b5050506100696000801b336100e460201b60201c565b5061009a7f9f2df0fed2c77648de5860a4cc508cd0818c85b8b8a1ab4ceeef8d981c8956a6336100e460201b60201c565b50826006819055506100dc336100b46101e260201b60201c565b60ff16600a6100c39190610b8c565b620f42406100d19190610bd7565b6101eb60201b60201c565b505050610d0a565b60006100f6838361027360201b60201c565b6101d75760016005600085815260200190815260200160002060000160008473ffffffffffffffffffffffffffffffffffffffff1673ffffffffffffffffffffffffffffffffffffffff16815260200190815260200160002060006101000a81548160ff0219169083151502179055506101746102de60201b60201c565b73ffffffffffffffffffffffffffffffffffffffff168273ffffffffffffffffffffffffffffffffffffffff16847f2f8788117e7eff1d82e926ec794901d17c78024a50270940304540a733656f0d60405160405180910390a4600190506101dc565b600090505b92915050565b60006012905090565b600073ffffffffffffffffffffffffffffffffffffffff168273ffffffffffffffffffffffffffffffffffffffff160361025d5760006040517fec442f050000000000000000000000000000000000000000000000000000000081526004016102549190610c5a565b60405180910390fd5b61026f600083836102e660201b60201c565b5050565b60006005600084815260200190815260200160002060000160008373ffffffffffffffffffffffffffffffffffffffff1673ffffffffffffffffffffffffffffffffffffffff16815260200190815260200160002060009054906101000a900460ff16905092915050565b600033905090565b600073ffffffffffffffffffffffffffffffffffffffff168373ffffffffffffffffffffffffffffffffffffffff160361033857806002600082825461032c9190610c75565b9250508190555061040b565b60008060008573ffffffffffffffffffffffffffffffffffffffff1673ffffffffffffffffffffffffffffffffffffffff168152602001908152602001600020549050818110156103c4578381836040517fe450d38c0000000000000000000000000000000000000000000000000000000081526004016103bb93929190610cb8565b60405180910390fd5b8181036000808673ffffffffffffffffffffffffffffffffffffffff1673ffffffffffffffffffffffffffffffffffffffff16815260200190815260200160002081905550505b600073ffffffffffffffffffffffffffffffffffffffff168273ffffffffffffffffffffffffffffffffffffffff160361045457806002600082825403925050819055506104a1565b806000808473ffffffffffffffffffffffffffffffffffffffff1673ffffffffffffffffffffffffffffffffffffffff168152602001908152602001600020600082825401925050819055505b8173ffffffffffffffffffffffffffffffffffffffff168373ffffffffffffffffffffffffffffffffffffffff167fddf252ad1be2c89b69c2b068fc378daa952ba7f163c4a11628f55a4df523b3ef836040516104fe9190610cef565b60405180910390a3505050565b6000604051905090565b600080fd5b600080fd5b6000819050919050565b6105328161051f565b811461053d57600080fd5b50565b60008151905061054f81610529565b92915050565b600080fd5b600080fd5b6000601f19601f8301169050919050565b7f4e487b7100000000000000000000000000000000000000000000000000000000600052604160045260246000fd5b6105a88261055f565b810181811067ffffffffffffffff821117156105c7576105c6610570565b5b80604052505050565b60006105da61050b565b90506105e6828261059f565b919050565b600067ffffffffffffffff82111561060657610605610570565b5b61060f8261055f565b9050602081019050919050565b60005b8381101561063a57808201518184015260208101905061061f565b60008484015250505050565b6000610659610654846105eb565b6105d0565b9050828152602081018484840111156106755761067461055a565b5b61068084828561061c565b509392505050565b600082601f83011261069d5761069c610555565b5b81516106ad848260208601610646565b91505092915050565b6000806000606084860312156106cf576106ce610515565b5b60006106dd86828701610540565b935050602084015167ffffffffffffffff8111156106fe576106fd61051a565b5b61070a86828701610688565b925050604084015167ffffffffffffffff81111561072b5761072a61051a565b5b61073786828701610688565b9150509250925092565b600081519050919050565b7f4e487b7100000000000000000000000000000000000000000000000000000000600052602260045260246000fd5b6000600282049050600182168061079357607f821691505b6020821081036107a6576107a561074c565b5b50919050565b60008190508160005260206000209050919050565b60006020601f8301049050919050565b600082821b905092915050565b60006008830261080e7fffffffffffffffffffffffffffffffffffffffffffffffffffffffffffffffff826107d1565b61081886836107d1565b95508019841693508086168417925050509392505050565b6000819050919050565b600061085561085061084b8461051f565b610830565b61051f565b9050919050565b6000819050919050565b61086f8361083a565b61088361087b8261085c565b8484546107de565b825550505050565b600090565b61089861088b565b6108a3818484610866565b505050565b5b818110156108c7576108bc600082610890565b6001810190506108a9565b5050565b601f82111561090c576108dd816107ac565b6108e6846107c1565b810160208510156108f5578190505b610909610901856107c1565b8301826108a8565b50505b505050565b600082821c905092915050565b600061092f60001984600802610911565b1980831691505092915050565b6000610948838361091e565b9150826002028217905092915050565b61096182610741565b67ffffffffffffffff81111561097a57610979610570565b5b610984825461077b565b61098f8282856108cb565b600060209050601f8311600181146109c257600084156109b0578287015190505b6109ba858261093c565b865550610a22565b601f1984166109d0866107ac565b60005b828110156109f8578489015182556001820191506020850194506020810190506109d3565b86831015610a155784890151610a11601f89168261091e565b8355505b6001600288020188555050505b505050505050565b7f4e487b7100000000000000000000000000000000000000000000000000000000600052601160045260246000fd5b60008160011c9050919050565b6000808291508390505b6001851115610ab057808604811115610a8c57610a8b610a2a565b5b6001851615610a9b5780820291505b8081029050610aa985610a59565b9450610a70565b94509492505050565b600082610ac95760019050610b85565b81610ad75760009050610b85565b8160018114610aed5760028114610af757610b26565b6001915050610b85565b60ff841115610b0957610b08610a2a565b5b8360020a915084821115610b2057610b1f610a2a565b5b50610b85565b5060208310610133831016604e8410600b8410161715610b5b5782820a905083811115610b5657610b55610a2a565b5b610b85565b610b688484846001610a66565b92509050818404811115610b7f57610b7e610a2a565b5b81810290505b9392505050565b6000610b978261051f565b9150610ba28361051f565b9250610bcf7fffffffffffffffffffffffffffffffffffffffffffffffffffffffffffffffff8484610ab9565b905092915050565b6000610be28261051f565b9150610bed8361051f565b9250828202610bfb8161051f565b91508282048414831517610c1257610c11610a2a565b5b5092915050565b600073ffffffffffffffffffffffffffffffffffffffff82169050919050565b6000610c4482610c19565b9050919050565b610c5481610c39565b82525050565b6000602082019050610c6f6000830184610c4b565b92915050565b6000610c808261051f565b9150610c8b8361051f565b9250828201905080821115610ca357610ca2610a2a565b5b92915050565b610cb28161051f565b82525050565b6000606082019050610ccd6000830186610c4b565b610cda6020830185610ca9565b610ce76040830184610ca9565b949350505050565b6000602082019050610d046000830184610ca9565b92915050565b611d9f80610d196000396000f3fe608060405234801561001057600080fd5b50600436106101425760003560e01c806370a08231116100b8578063a9059cbb1161007c578063a9059cbb14610389578063d5391393146103b9578063d547741f146103d7578063d5abeb01146103f3578063dc49892c14610411578063dd62ed3e1461042d57610142565b806370a08231146102d157806391d148541461030157806395d89b4114610331578063a0712d681461034f578063a217fddf1461036b57610142565b8063248a9ca31161010a578063248a9ca3146102135780632f2ff15d14610243578063313ce5671461025f57806336568abe1461027d5780633dd1eb611461029957806369e2f0fb146102b557610142565b806301ffc9a71461014757806306fdde0314610177578063095ea7b31461019557806318160ddd146101c557806323b872dd146101e3575b600080fd5b610161600480360381019061015c9190611524565b61045d565b60405161016e919061156c565b60405180910390f35b61017f6104d7565b60405161018c9190611617565b60405180910390f35b6101af60048036038101906101aa91906116cd565b610569565b6040516101bc919061156c565b60405180910390f35b6101cd61058c565b6040516101da919061171c565b60405180910390f35b6101fd60048036038101906101f89190611737565b6105ae565b60405161020a919061156c565b60405180910390f35b61022d600480360381019061022891906117c0565b6105dd565b60405161023a91906117fc565b60405180910390f35b61025d60048036038101906102589190611817565b6105fd565b005b61026761061f565b6040516102749190611873565b60405180910390f35b61029760048036038101906102929190611817565b610628565b005b6102b360048036038101906102ae919061188e565b6106a3565b005b6102cf60048036038101906102ca919061188e565b61071c565b005b6102eb60048036038101906102e6919061188e565b610795565b6040516102f8919061171c565b60405180910390f35b61031b60048036038101906103169190611817565b6107dd565b604051610328919061156c565b60405180910390f35b610339610848565b6040516103469190611617565b60405180910390f35b610369600480360381019061036491906118bb565b6108da565b005b6103736109a7565b60405161038091906117fc565b60405180910390f35b6103a3600480360381019061039e91906116cd565b6109ae565b6040516103b0919061156c565b60405180910390f35b6103c16109d1565b6040516103ce91906117fc565b60405180910390f35b6103f160048036038101906103ec9190611817565b6109f5565b005b6103fb610a17565b604051610408919061171c565b60405180910390f35b61042b600480360381019061042691906116cd565b610a1d565b005b610447600480360381019061044291906118e8565b610ae0565b604051610454919061171c565b60405180910390f35b60007f7965db0b000000000000000000000000000000000000000000000000000000007bffffffffffffffffffffffffffffffffffffffffffffffffffffffff1916827bffffffffffffffffffffffffffffffffffffffffffffffffffffffff191614806104d057506104cf82610b67565b5b9050919050565b6060600380546104e690611957565b80601f016020809104026020016040519081016040528092919081815260200182805461051290611957565b801561055f5780601f106105345761010080835404028352916020019161055f565b820191906000526020600020905b81548152906001019060200180831161054257829003601f168201915b5050505050905090565b600080610574610bd1565b9050610581818585610bd9565b600191505092915050565b6000670de0b6b3a764000061059f610beb565b6105a991906119e6565b905090565b6000806105b9610bd1565b90506105c6858285610bf5565b6105d1858585610c89565b60019150509392505050565b600060056000838152602001908152602001600020600101549050919050565b610606826105dd565b61060f81610d7d565b6106198383610d91565b50505050565b60006012905090565b610630610bd1565b73ffffffffffffffffffffffffffffffffffffffff168173ffffffffffffffffffffffffffffffffffffffff1614610694576040517f6697b23200000000000000000000000000000000000000000000000000000000815260040160405180910390fd5b61069e8282610e83565b505050565b6106b06000801b336107dd565b6106ef576040517f08c379a00000000000000000000000000000000000000000000000000000000081526004016106e690611aaf565b60405180910390fd5b6107197f9f2df0fed2c77648de5860a4cc508cd0818c85b8b8a1ab4ceeef8d981c8956a6826105fd565b50565b6107296000801b336107dd565b610768576040517f08c379a000000000000000000000000000000000000000000000000000000000815260040161075f90611aaf565b60405180910390fd5b6107927f9f2df0fed2c77648de5860a4cc508cd0818c85b8b8a1ab4ceeef8d981c8956a6826109f5565b50565b60008060008373ffffffffffffffffffffffffffffffffffffffff1673ffffffffffffffffffffffffffffffffffffffff168152602001908152602001600020549050919050565b60006005600084815260200190815260200160002060000160008373ffffffffffffffffffffffffffffffffffffffff1673ffffffffffffffffffffffffffffffffffffffff16815260200190815260200160002060009054906101000a900460ff16905092915050565b60606004805461085790611957565b80601f016020809104026020016040519081016040528092919081815260200182805461088390611957565b80156108d05780601f106108a5576101008083540402835291602001916108d0565b820191906000526020600020905b8154815290600101906020018083116108b357829003601f168201915b5050505050905090565b6109047f9f2df0fed2c77648de5860a4cc508cd0818c85b8b8a1ab4ceeef8d981c8956a6336107dd565b610943576040517f08c379a000000000000000000000000000000000000000000000000000000000815260040161093a90611b41565b60405180910390fd5b6006548161094f61058c565b6109599190611b61565b111561099a576040517f08c379a000000000000000000000000000000000000000000000000000000000815260040161099190611c07565b60405180910390fd5b6109a43382610f76565b50565b6000801b81565b6000806109b9610bd1565b90506109c6818585610c89565b600191505092915050565b7f9f2df0fed2c77648de5860a4cc508cd0818c85b8b8a1ab4ceeef8d981c8956a681565b6109fe826105dd565b610a0781610d7d565b610a118383610e83565b50505050565b60065481565b610a2a6000801b336107dd565b610a69576040517f08c379a0000000000000000000000000000000000000000000000000000000008152600401610a6090611aaf565b60405180910390fd5b610a937f9f2df0fed2c77648de5860a4cc508cd0818c85b8b8a1ab4ceeef8d981c8956a6836107dd565b610ad2576040517f08c379a0000000000000000000000000000000000000000000000000000000008152600401610ac990611cbf565b60405180910390fd5b610adc8282610ff8565b5050565b6000600160008473ffffffffffffffffffffffffffffffffffffffff1673ffffffffffffffffffffffffffffffffffffffff16815260200190815260200160002060008373ffffffffffffffffffffffffffffffffffffffff1673ffffffffffffffffffffffffffffffffffffffff16815260200190815260200160002054905092915050565b60007f01ffc9a7000000000000000000000000000000000000000000000000000000007bffffffffffffffffffffffffffffffffffffffffffffffffffffffff1916827bffffffffffffffffffffffffffffffffffffffffffffffffffffffff1916149050919050565b600033905090565b610be6838383600161107a565b505050565b6000600254905090565b6000610c018484610ae0565b90507fffffffffffffffffffffffffffffffffffffffffffffffffffffffffffffffff8114610c835781811015610c73578281836040517ffb8f41b2000000000000000000000000000000000000000000000000000000008152600401610c6a93929190611cee565b60405180910390fd5b610c828484848403600061107a565b5b50505050565b600073ffffffffffffffffffffffffffffffffffffffff168373ffffffffffffffffffffffffffffffffffffffff1603610cfb5760006040517f96c6fd1e000000000000000000000000000000000000000000000000000000008152600401610cf29190611d25565b60405180910390fd5b600073ffffffffffffffffffffffffffffffffffffffff168273ffffffffffffffffffffffffffffffffffffffff1603610d6d5760006040517fec442f05000000000000000000000000000000000000000000000000000000008152600401610d649190611d25565b60405180910390fd5b610d78838383611251565b505050565b610d8e81610d89610bd1565b611476565b50565b6000610d9d83836107dd565b610e785760016005600085815260200190815260200160002060000160008473ffffffffffffffffffffffffffffffffffffffff1673ffffffffffffffffffffffffffffffffffffffff16815260200190815260200160002060006101000a81548160ff021916908315150217905550610e15610bd1565b73ffffffffffffffffffffffffffffffffffffffff168273ffffffffffffffffffffffffffffffffffffffff16847f2f8788117e7eff1d82e926ec794901d17c78024a50270940304540a733656f0d60405160405180910390a460019050610e7d565b600090505b92915050565b6000610e8f83836107dd565b15610f6b5760006005600085815260200190815260200160002060000160008473ffffffffffffffffffffffffffffffffffffffff1673ffffffffffffffffffffffffffffffffffffffff16815260200190815260200160002060006101000a81548160ff021916908315150217905550610f08610bd1565b73ffffffffffffffffffffffffffffffffffffffff168273ffffffffffffffffffffffffffffffffffffffff16847ff6391f5c32d9c69d2a47ea670b442974b53935d1edc7fd64eb21e047a839171b60405160405180910390a460019050610f70565b600090505b92915050565b600073ffffffffffffffffffffffffffffffffffffffff168273ffffffffffffffffffffffffffffffffffffffff1603610fe85760006040517fec442f05000000000000000000000000000000000000000000000000000000008152600401610fdf9190611d25565b60405180910390fd5b610ff460008383611251565b5050565b600073ffffffffffffffffffffffffffffffffffffffff168273ffffffffffffffffffffffffffffffffffffffff160361106a5760006040517f96c6fd1e0000000000000000000000000000000000000000000000000000000081526004016110619190611d25565b60405180910390fd5b61107682600083611251565b5050565b600073ffffffffffffffffffffffffffffffffffffffff168473ffffffffffffffffffffffffffffffffffffffff16036110ec5760006040517fe602df050000000000000000000000000000000000000000000000000000000081526004016110e39190611d25565b60405180910390fd5b600073ffffffffffffffffffffffffffffffffffffffff168373ffffffffffffffffffffffffffffffffffffffff160361115e5760006040517f94280d620000000000000000000000000000000000000000000000000000000081526004016111559190611d25565b60405180910390fd5b81600160008673ffffffffffffffffffffffffffffffffffffffff1673ffffffffffffffffffffffffffffffffffffffff16815260200190815260200160002060008573ffffffffffffffffffffffffffffffffffffffff1673ffffffffffffffffffffffffffffffffffffffff16815260200190815260200160002081905550801561124b578273ffffffffffffffffffffffffffffffffffffffff168473ffffffffffffffffffffffffffffffffffffffff167f8c5be1e5ebec7d5bd14f71427d1e84f3dd0314c0f7b2291e5b200ac8c7c3b92584604051611242919061171c565b60405180910390a35b50505050565b600073ffffffffffffffffffffffffffffffffffffffff168373ffffffffffffffffffffffffffffffffffffffff16036112a35780600260008282546112979190611b61565b92505081905550611376565b60008060008573ffffffffffffffffffffffffffffffffffffffff1673ffffffffffffffffffffffffffffffffffffffff1681526020019081526020016000205490508181101561132f578381836040517fe450d38c00000000000000000000000000000000000000000000000000000000815260040161132693929190611cee565b60405180910390fd5b8181036000808673ffffffffffffffffffffffffffffffffffffffff1673ffffffffffffffffffffffffffffffffffffffff16815260200190815260200160002081905550505b600073ffffffffffffffffffffffffffffffffffffffff168273ffffffffffffffffffffffffffffffffffffffff16036113bf578060026000828254039250508190555061140c565b806000808473ffffffffffffffffffffffffffffffffffffffff1673ffffffffffffffffffffffffffffffffffffffff168152602001908152602001600020600082825401925050819055505b8173ffffffffffffffffffffffffffffffffffffffff168373ffffffffffffffffffffffffffffffffffffffff167fddf252ad1be2c89b69c2b068fc378daa952ba7f163c4a11628f55a4df523b3ef83604051611469919061171c565b60405180910390a3505050565b61148082826107dd565b6114c35780826040517fe2517d3f0000000000000000000000000000000000000000000000000000000081526004016114ba929190611d40565b60405180910390fd5b5050565b600080fd5b60007fffffffff0000000000000000000000000000000000000000000000000000000082169050919050565b611501816114cc565b811461150c57600080fd5b50565b60008135905061151e816114f8565b92915050565b60006020828403121561153a576115396114c7565b5b60006115488482850161150f565b91505092915050565b60008115159050919050565b61156681611551565b82525050565b6000602082019050611581600083018461155d565b92915050565b600081519050919050565b600082825260208201905092915050565b60005b838110156115c15780820151818401526020810190506115a6565b60008484015250505050565b6000601f19601f8301169050919050565b60006115e982611587565b6115f38185611592565b93506116038185602086016115a3565b61160c816115cd565b840191505092915050565b6000602082019050818103600083015261163181846115de565b905092915050565b600073ffffffffffffffffffffffffffffffffffffffff82169050919050565b600061166482611639565b9050919050565b61167481611659565b811461167f57600080fd5b50565b6000813590506116918161166b565b92915050565b6000819050919050565b6116aa81611697565b81146116b557600080fd5b50565b6000813590506116c7816116a1565b92915050565b600080604083850312156116e4576116e36114c7565b5b60006116f285828601611682565b9250506020611703858286016116b8565b9150509250929050565b61171681611697565b82525050565b6000602082019050611731600083018461170d565b92915050565b6000806000606084860312156117505761174f6114c7565b5b600061175e86828701611682565b935050602061176f86828701611682565b9250506040611780868287016116b8565b9150509250925092565b6000819050919050565b61179d8161178a565b81146117a857600080fd5b50565b6000813590506117ba81611794565b92915050565b6000602082840312156117d6576117d56114c7565b5b60006117e4848285016117ab565b91505092915050565b6117f68161178a565b82525050565b600060208201905061181160008301846117ed565b92915050565b6000806040838503121561182e5761182d6114c7565b5b600061183c858286016117ab565b925050602061184d85828601611682565b9150509250929050565b600060ff82169050919050565b61186d81611857565b82525050565b60006020820190506118886000830184611864565b92915050565b6000602082840312156118a4576118a36114c7565b5b60006118b284828501611682565b91505092915050565b6000602082840312156118d1576118d06114c7565b5b60006118df848285016116b8565b91505092915050565b600080604083850312156118ff576118fe6114c7565b5b600061190d85828601611682565b925050602061191e85828601611682565b9150509250929050565b7f4e487b7100000000000000000000000000000000000000000000000000000000600052602260045260246000fd5b6000600282049050600182168061196f57607f821691505b60208210810361198257611981611928565b5b50919050565b7f4e487b7100000000000000000000000000000000000000000000000000000000600052601260045260246000fd5b7f4e487b7100000000000000000000000000000000000000000000000000000000600052601160045260246000fd5b60006119f182611697565b91506119fc83611697565b925082611a0c57611a0b611988565b5b828204905092915050565b7f456c207573756172696f206e6f20657320656c2061646d696e6973747261646f60008201527f722e2053652072657175696572656e207065726d69736f73207061726120726560208201527f616c697a6172206573746120616363696f6e2e00000000000000000000000000604082015250565b6000611a99605383611592565b9150611aa482611a17565b606082019050919050565b60006020820190508181036000830152611ac881611a8c565b9050919050565b7f456c207573756172696f206e6f2065737461206175746f72697a61646f20706160008201527f7261206d696e7465617220746f6b656e732e0000000000000000000000000000602082015250565b6000611b2b603283611592565b9150611b3682611acf565b604082019050919050565b60006020820190508181036000830152611b5a81611b1e565b9050919050565b6000611b6c82611697565b9150611b7783611697565b9250828201905080821115611b8f57611b8e6119b7565b5b92915050565b7f4e6f20736520707565646520736f627265706173617220656c2073756d696e6960008201527f7374726f206d6178696d6f2e0000000000000000000000000000000000000000602082015250565b6000611bf1602c83611592565b9150611bfc82611b95565b604082019050919050565b60006020820190508181036000830152611c2081611be4565b9050919050565b7f4e6f207365207075656465207265616c697a6172207175656d6120646520746f60008201527f6b656e732e204c61206375656e7461206f626a6574697661206465626520657360208201527f746172206175746f72697a6164612070617261206d696e746561722e00000000604082015250565b6000611ca9605c83611592565b9150611cb482611c27565b606082019050919050565b60006020820190508181036000830152611cd881611c9c565b9050919050565b611ce881611659565b82525050565b6000606082019050611d036000830186611cdf565b611d10602083018561170d565b611d1d604083018461170d565b949350505050565b6000602082019050611d3a6000830184611cdf565b92915050565b6000604082019050611d556000830185611cdf565b611d6260208301846117ed565b939250505056fea2646970667358221220f2b49364121e7dcbb2d3b154f3b51e52d4a3774af70e7ddd3f642e8cbdd90af064736f6c634300081b0033",
  "devdoc": {
    "errors": {
      "AccessControlBadConfirmation()": [
        {
          "details": "The caller of a function is not the expected one. NOTE: Don't confuse with {AccessControlUnauthorizedAccount}."
        }
      ],
      "AccessControlUnauthorizedAccount(address,bytes32)": [
        {
          "details": "The `account` is missing a role."
        }
      ],
      "ERC20InsufficientAllowance(address,uint256,uint256)": [
        {
          "details": "Indicates a failure with the `spender`s `allowance`. Used in transfers.",
          "params": {
            "allowance": "Amount of tokens a `spender` is allowed to operate with.",
            "needed": "Minimum amount required to perform a transfer.",
            "spender": "Address that may be allowed to operate on tokens without being their owner."
          }
        }
      ],
      "ERC20InsufficientBalance(address,uint256,uint256)": [
        {
          "details": "Indicates an error related to the current `balance` of a `sender`. Used in transfers.",
          "params": {
            "balance": "Current balance for the interacting account.",
            "needed": "Minimum amount required to perform a transfer.",
            "sender": "Address whose tokens are being transferred."
          }
        }
      ],
      "ERC20InvalidApprover(address)": [
        {
          "details": "Indicates a failure with the `approver` of a token to be approved. Used in approvals.",
          "params": {
            "approver": "Address initiating an approval operation."
          }
        }
      ],
      "ERC20InvalidReceiver(address)": [
        {
          "details": "Indicates a failure with the token `receiver`. Used in transfers.",
          "params": {
            "receiver": "Address to which tokens are being transferred."
          }
        }
      ],
      "ERC20InvalidSender(address)": [
        {
          "details": "Indicates a failure with the token `sender`. Used in transfers.",
          "params": {
            "sender": "Address whose tokens are being transferred."
          }
        }
      ],
      "ERC20InvalidSpender(address)": [
        {
          "details": "Indicates a failure with the `spender` to be approved. Used in approvals.",
          "params": {
            "spender": "Address that may be allowed to operate on tokens without being their owner."
          }
        }
      ]
    },
    "events": {
      "Approval(address,address,uint256)": {
        "details": "Emitted when the allowance of a `spender` for an `owner` is set by a call to {approve}. `value` is the new allowance."
      },
      "RoleAdminChanged(bytes32,bytes32,bytes32)": {
        "details": "Emitted when `newAdminRole` is set as ``role``'s admin role, replacing `previousAdminRole` `DEFAULT_ADMIN_ROLE` is the starting admin for all roles, despite {RoleAdminChanged} not being emitted signaling this."
      },
      "RoleGranted(bytes32,address,address)": {
        "details": "Emitted when `account` is granted `role`. `sender` is the account that originated the contract call, an admin role bearer except when using {AccessControl-_setupRole}."
      },
      "RoleRevoked(bytes32,address,address)": {
        "details": "Emitted when `account` is revoked `role`. `sender` is the account that originated the contract call:   - if using `revokeRole`, it is the admin role bearer   - if using `renounceRole`, it is the role bearer (i.e. `account`)"
      },
      "Transfer(address,address,uint256)": {
        "details": "Emitted when `value` tokens are moved from one account (`from`) to another (`to`). Note that `value` may be zero."
      }
    },
    "kind": "dev",
    "methods": {
      "allowance(address,address)": {
        "details": "See {IERC20-allowance}."
      },
      "approve(address,uint256)": {
        "details": "See {IERC20-approve}. NOTE: If `value` is the maximum `uint256`, the allowance is not updated on `transferFrom`. This is semantically equivalent to an infinite approval. Requirements: - `spender` cannot be the zero address."
      },
      "balanceOf(address)": {
        "details": "See {IERC20-balanceOf}."
      },
      "decimals()": {
        "details": "Returns the number of decimals used to get its user representation. For example, if `decimals` equals `2`, a balance of `505` tokens should be displayed to a user as `5.05` (`505 / 10 ** 2`). Tokens usually opt for a value of 18, imitating the relationship between Ether and Wei. This is the default value returned by this function, unless it's overridden. NOTE: This information is only used for _display_ purposes: it in no way affects any of the arithmetic of the contract, including {IERC20-balanceOf} and {IERC20-transfer}."
      },
      "getRoleAdmin(bytes32)": {
        "details": "Returns the admin role that controls `role`. See {grantRole} and {revokeRole}. To change a role's admin, use {_setRoleAdmin}."
      },
      "grantRole(bytes32,address)": {
        "details": "Grants `role` to `account`. If `account` had not been already granted `role`, emits a {RoleGranted} event. Requirements: - the caller must have ``role``'s admin role. May emit a {RoleGranted} event."
      },
      "hasRole(bytes32,address)": {
        "details": "Returns `true` if `account` has been granted `role`."
      },
      "name()": {
        "details": "Returns the name of the token."
      },
      "renounceRole(bytes32,address)": {
        "details": "Revokes `role` from the calling account. Roles are often managed via {grantRole} and {revokeRole}: this function's purpose is to provide a mechanism for accounts to lose their privileges if they are compromised (such as when a trusted device is misplaced). If the calling account had been revoked `role`, emits a {RoleRevoked} event. Requirements: - the caller must be `callerConfirmation`. May emit a {RoleRevoked} event."
      },
      "revokeRole(bytes32,address)": {
        "details": "Revokes `role` from `account`. If `account` had been granted `role`, emits a {RoleRevoked} event. Requirements: - the caller must have ``role``'s admin role. May emit a {RoleRevoked} event."
      },
      "supportsInterface(bytes4)": {
        "details": "See {IERC165-supportsInterface}."
      },
      "symbol()": {
        "details": "Returns the symbol of the token, usually a shorter version of the name."
      },
      "totalSupply()": {
        "details": "See {IERC20-totalSupply}."
      },
      "transfer(address,uint256)": {
        "details": "See {IERC20-transfer}. Requirements: - `to` cannot be the zero address. - the caller must have a balance of at least `value`."
      },
      "transferFrom(address,address,uint256)": {
        "details": "See {IERC20-transferFrom}. Emits an {Approval} event indicating the updated allowance. This is not required by the EIP. See the note at the beginning of {ERC20}. NOTE: Does not update the allowance if the current allowance is the maximum `uint256`. Requirements: - `from` and `to` cannot be the zero address. - `from` must have a balance of at least `value`. - the caller must have allowance for ``from``'s tokens of at least `value`."
      }
    },
    "version": 1
  },
  "userdoc": {
    "kind": "user",
    "methods": {},
    "version": 1
  },
  "storageLayout": {
    "storage": [
      {
        "astId": 538,
        "contract": "contracts/Token.sol:Token",
        "label": "_balances",
        "offset": 0,
        "slot": "0",
        "type": "t_mapping(t_address,t_uint256)"
      },
      {
        "astId": 544,
        "contract": "contracts/Token.sol:Token",
        "label": "_allowances",
        "offset": 0,
        "slot": "1",
        "type": "t_mapping(t_address,t_mapping(t_address,t_uint256))"
      },
      {
        "astId": 546,
        "contract": "contracts/Token.sol:Token",
        "label": "_totalSupply",
        "offset": 0,
        "slot": "2",
        "type": "t_uint256"
      },
      {
        "astId": 548,
        "contract": "contracts/Token.sol:Token",
        "label": "_name",
        "offset": 0,
        "slot": "3",
        "type": "t_string_storage"
      },
      {
        "astId": 550,
        "contract": "contracts/Token.sol:Token",
        "label": "_symbol",
        "offset": 0,
        "slot": "4",
        "type": "t_string_storage"
      },
      {
        "astId": 26,
        "contract": "contracts/Token.sol:Token",
        "label": "_roles",
        "offset": 0,
        "slot": "5",
        "type": "t_mapping(t_bytes32,t_struct(RoleData)21_storage)"
      },
      {
        "astId": 1215,
        "contract": "contracts/Token.sol:Token",
        "label": "maxSupply",
        "offset": 0,
        "slot": "6",
        "type": "t_uint256"
      }
    ],
    "types": {
      "t_address": {
        "encoding": "inplace",
        "label": "address",
        "numberOfBytes": "20"
      },
      "t_bool": {
        "encoding": "inplace",
        "label": "bool",
        "numberOfBytes": "1"
      },
      "t_bytes32": {
        "encoding": "inplace",
        "label": "bytes32",
        "numberOfBytes": "32"
      },
      "t_mapping(t_address,t_bool)": {
        "encoding": "mapping",
        "key": "t_address",
        "label": "mapping(address => bool)",
        "numberOfBytes": "32",
        "value": "t_bool"
      },
      "t_mapping(t_address,t_mapping(t_address,t_uint256))": {
        "encoding": "mapping",
        "key": "t_address",
        "label": "mapping(address => mapping(address => uint256))",
        "numberOfBytes": "32",
        "value": "t_mapping(t_address,t_uint256)"
      },
      "t_mapping(t_address,t_uint256)": {
        "encoding": "mapping",
        "key": "t_address",
        "label": "mapping(address => uint256)",
        "numberOfBytes": "32",
        "value": "t_uint256"
      },
      "t_mapping(t_bytes32,t_struct(RoleData)21_storage)": {
        "encoding": "mapping",
        "key": "t_bytes32",
        "label": "mapping(bytes32 => struct AccessControl.RoleData)",
        "numberOfBytes": "32",
        "value": "t_struct(RoleData)21_storage"
      },
      "t_string_storage": {
        "encoding": "bytes",
        "label": "string",
        "numberOfBytes": "32"
      },
      "t_struct(RoleData)21_storage": {
        "encoding": "inplace",
        "label": "struct AccessControl.RoleData",
        "members": [
          {
            "astId": 18,
            "contract": "contracts/Token.sol:Token",
            "label": "hasRole",
            "offset": 0,
            "slot": "0",
            "type": "t_mapping(t_address,t_bool)"
          },
          {
            "astId": 20,
            "contract": "contracts/Token.sol:Token",
            "label": "adminRole",
            "offset": 0,
            "slot": "1",
            "type": "t_bytes32"
          }
        ],
        "numberOfBytes": "64"
      },
      "t_uint256": {
        "encoding": "inplace",
        "label": "uint256",
        "numberOfBytes": "32"
      }
    }
  }
}